:100000000C94A4040C94EB040C94EB040C94EB04FB
:100010000C94EB040C94EB040C94EB040C94EB04A4
:100020000C94EB040C94EB040C94B1280C946D2804
:100030000C94A9300C94EB040C94EB040C94EB049A
:100040000C94EB040C94EB040C94EB040C94EB0474
:100050000C94EB040C9485300C94EB040C94EB049E
:100060000C94EB040C94EB040C94EB040C94EB0454
:100070000C94EB040C94EB040C94EB040C94EB0444
:100080000C94EB040C94EB040C94EB040C94EB0434
:100090000C94EB040C94EB0406022B64A0FF00000C
:1000A000000008022B64A0FF0000000004022B6483
:1000B000A0FF000000000412D7FF78FF000000003E
:1000C00004127DFF64FF0000000004121EFF78FF91
:1000D0000000000004125FFF5AFF0000000005014D
:1000E0000902A10185020901A100050919012908D8
:1000F00015002501950875018102050109300931B6
:100100001581257F95027508810609381581257F9F
:10011000950175088106050C0A38021581257F9521
:100120000175088106C0C005010980A10185031978
:10013000012AB700150126B700950175108100C08E
:10014000050C0901A101850419012AA00215012647
:10015000A002950175108100C005010906A1018565
:1001600005050719E029E7150025019508750181A6
:10017000020507190029EF1500250195F075018189
:10018000020508190129059505750191029501756A
:10019000039101C00660FF0961A1010962150026F3
:1001A000FF009520750881020963150026FF009560
:1001B0002075089102C005010906A101050719E093
:1001C00029E715002501950875018102950175083B
:1001D00081010507190029FF150026FF0095067506
:1001E00008810005081901290595057501910295F9
:1001F0000175039101C0000101010101010101012B
:1002000002020202020202020203030303030303C7
:100210000304040404040404050505050506060694
:100220000606070707070708080808090909090A51
:100230000A0A0B0B0B0C0C0C0D0D0D0E0E0E0F0FF6
:100240000F10101111111212131314141515161684
:100250001717181819191A1A1B1B1C1D1D1E1E1FF3
:100260002020212222232424252626272829292A42
:100270002B2C2D2D2E2F303132323334353637386A
:10028000393A3B3C3D3E3F40414243444546474866
:10029000494A4C4D4E4F50515354555658595A5B3C
:1002A0005D5E5F616264656668696B6C6D6F7072DC
:1002B000737577787A7B7D7E8082838587888A8C48
:1002C0008E8F91939596989A9C9EA0A2A3A5A7A97C
:1002D000ABADAFB1B3B5B7BABCBEC0C2C4C6C9CB73
:1002E000CDCFD1D4D6D8DBDDDFE2E4E7E9EBEEF029
:1002F000F3F5F8FAFDFFFFAA7F5540090807060548
:10030000040F0E0D0C0B0A1514131211100100022C
:1003100003171618191B1A1C1D2524232221201E21
:10032000292827262223252628292A2C2D2F30323A
:10033000333536383A3B3D3E4042434547494A4CC7
:100340004E5051535557595A5C5E606264666869F5
:100350006B6D6F71737577797B7D7F8183858789FD
:100360008A8C8E90929496989A9C9E9FA1A3A5A702
:10037000A8AAACAEAFB1B3B4B6B8B9BBBCBEBFC12E
:10038000C2C3C5C6C7C9CACBCCCDCED0D1D2D2D3B9
:10039000D4D5D6D7D7D8D9D9DADADBDBDBDCDCDCCD
:1003A000DCDCDDDDDDDDDCDCDCDCDCDBDBDBDADA90
:1003B000D9D9D8D7D7D6D5D4D3D2D2D1D0CECDCC07
:1003C000CBCAC9C7C6C5C3C2C1BFBEBCBBB9B8B61C
:1003D000B4B3B1AFAEACAAA8A7A5A3A19F9E9C9AA7
:1003E00098969492908E8C8A89878583817F7D7B75
:1003F00079777573716F6D6B6968666462605E5C56
:100400005A5957555351504E4C4A4947454342401B
:100410003E3D3B3A3836353332302F2D2C2A2928B1
:100420002625232250007F004F00115012501350F8
:100430005F0060006100CA5C2C00C95CC45CC25CE7
:10044000C35C3900470053005C005D005E00C65C81
:100450003D04C55C815FAD00805FB900B300620000
:1004600059005A005B00F9001A01FA000000000070
:1004700000002B034A002B0156017F0057012B037C
:1004800017012B01010001000100105001000100C3
:100490000100010001000100010001000100010054
:1004A0000100010001000100010001000100010044
:1004B0000100010001000100010001000100010034
:1004C0000100010001000100010001000000000026
:1004D0000000010001000100010001000100010015
:1004E00001000100010001000100105001000100A5
:1004F00001000100010001000100010001000100F4
:1005000001000100010001000100010001000100E3
:1005100001000100010001000100010001000100D3
:1005200001000100010001000100010000000000C5
:1005300000000100010001000100010001000100B4
:100540000100010001000100010010500100010044
:100550000100010001000100010001000100010093
:100560000100010001000100010001000100010083
:100570000100010001000100010001000100010073
:100580000100010001000100010001000000000065
:100590000000010001000100010001000100010054
:1005A0000100010001000100010001000100010043
:1005B0000100010001000100010001000100010033
:1005C0000100010001000100010001000100010023
:1005D0000100010001000100010001000100010013
:1005E0000100010001000100010001000000000005
:1005F00000000100010001000100010001000100F4
:1006000001000100010001000100010001000100E2
:1006100001000100010001000100010001000100D2
:1006200001000100010001000100010001000100C2
:1006300001000100010001000100010001000100B2
:1006400001000100010001000100010000000000A4
:100650000000010001000100010001000100010093
:100660000100010001000100010001000100010082
:100670000100010001000100010001000100010072
:100680000100010001000100010001000100010062
:100690000100010001000100010001000100010052
:1006A0000100010001000100010001000000000044
:1006B0000000010001000100010001000100010033
:1006C0000100010001000100010001000100010022
:1006D0000100010001000100010001000100010012
:1006E0000100010001000100010001000100010002
:1006F00001000100010001000100010001000100F2
:1007000001000100010001000100010000000000E3
:1007100000000100010001000100010001000100D2
:1007200001000100010001000100010001000100C1
:1007300001000100010001000100010001000100B1
:1007400001000100010001000100010001000100A1
:100750000100010001000100010001000100010091
:100760000100010001000100010001000000000083
:100770000000010001000100010001000100010072
:100780000100010001000100010001000100010061
:100790000100010001000100010001000100010051
:1007A0000100010001000100010001000100010041
:1007B0000100010001000100010001000100010031
:1007C0000100010001000100010001000000000023
:1007D0000000010001000100010001000100010012
:1007E0000100010000000000000000000000000007
:1007F00000000000000000000000000000000000F9
:1008000000000000000000007E0F00D4FFFFFFC7C3
:100810000000007800000000000000002A2B2800E3
:10082000000000000000000000000000000000299F
:10083000000000002C1E3420212224342627252EDF
:10084000362D3738271E1F20212223242526333317
:10085000362E37381F0405060708090A0B0C0D0E43
:100860000F101112131415161718191A1B1C1D2F0F
:100870003130232D350405060708090A0B0C0D0E2F
:100880000F101112131415161718191A1B1C1D2FEF
:100890003130354CD400CA00C000B600AC00A20014
:1008A000980000001E0F0500047F3F1F643214648F
:1008B0003214783C1E1E140A0509025B0003010075
:1008C000A0FA09040000010301010009211101003F
:1008D000012240000705810308000A090401000203
:1008E00003000000092111010001222200070582F6
:1008F0000320000107050303200001090402000191
:100900000300000009211101000122B6000705843F
:100910000320000A12011001000000084B410900E9
:1009200001000102000108034100390065000000D8
:100930001203410074006C0061006E0074006900D5
:10094000730000000403090411241FBECFEFD0E19F
:10095000DEBFCDBF04B603FE27C080913A0490915C
:100960003B04A0913C04B0913D048730904BA740DC
:10097000B04BD1F410923A0410923B0410923C0414
:1009800010923D0414BE84B7877F84BF0FB6F894DD
:10099000A89580916000886180936000109260004B
:1009A0000FBEE0E0F8E7099524E0A4ECB1E001C057
:1009B0001D92AA33B207E1F711E0A0E0B1E0E0E355
:1009C000F5E602C005900D92A43CB107D9F70E944C
:1009D00088290C944B320C940000E8EDF0E0808103
:1009E0008C7F80831092E2001092DA001092E10076
:1009F000A0EEB0E08C9181608C9380818F778083B2
:100A000019BCA7EDB0E08C918E7F8C9380818F7E96
:100A100080831092040408952091E4003091E50051
:100A200095E6A9012091EC00822F817020FF06C07D
:100A30008091E80080FF06C080E008952091E800E2
:100A400022FD1AC080912904882389F0853089F01D
:100A50008091EB0085FD0FC02091E4003091E5000E
:100A600042175307F9F29150E1F684E0089582E0CD
:100A7000089583E0089581E00895EF92FF920F9327
:100A80001F93CF937C018B010E940C05C82F81110D
:100A900017C08091E80085FD0BC08091E8008E773B
:100AA0008093E8000E940C05882399F3C82F08C0A2
:100AB000F70181917F018093F1000150110949F7FD
:100AC0008C2FCF911F910F91FF90EF9008958091FF
:100AD0002B0487FF13C08091E80082FF06C080913D
:100AE000E8008B778093E80004C08091290481118D
:100AF000F2CF0895809129048823D9F38091E800EA
:100B000080FFF8CF8091E8008E77ECCF982F9093FC
:100B1000E900242F762F50E0891731F07091EC0016
:100B20002091ED005091F00021FD07C09F5F9730AC
:100B300071F78093E90081E008953091EB003E7FEA
:100B40003093EB003091ED003D7F3093ED0030911C
:100B5000EB0031603093EB007093EC002093ED00DC
:100B60005093F0002091EE0027FDE0CF80E0089543
:100B7000CF92DF92EF92FF920F931F93CF93DF9369
:100B8000C8EDD0E088818F7E8883E7EDF0E080813A
:100B90008160808381E08093040488818C7F8883D6
:100BA00002EE10E0D8011C921092DA0081EEC82EFD
:100BB000D12CD6011C9288818F77888388818068A8
:100BC000888388818F7D888380818068808319BC39
:100BD0001092290410922A041092280410922704DB
:100BE00090EEE92EF12CF70180818B7F8083888144
:100BF0008160888342E060E080E00E948605D60143
:100C00008C918E7F8C93F8018081816080838081BC
:100C100088608083D7018C918E7F8C9388818061DE
:100C20008883DF91CF911F910F91FF90EF90DF901C
:100C3000CF900895FC018091310490913204861781
:100C40009707A0F06115710529F49091E8009E774F
:100C50009093E80090E06115710551F4911108C07E
:100C60008091E80082FF33C080E00895BC01F2CF9C
:100C7000809129048823B9F18530B9F18091E80089
:100C800083FD2FC08091E80082FDEACF8091E800CB
:100C900080FFE1CF2091F2003091F30061157105E2
:100CA00019F02830310558F091E02830310509F06D
:100CB00090E02091E8002E772093E800CCCF81913E
:100CC0008093F100615071092F5F3F4FE7CF809112
:100CD0002904882341F0853041F08091E80083FFAA
:100CE000BFCF81E0089582E0089583E008950895DC
:100CF00080E008958091060408959C014FB7F89410
:100D00008091000490910104A0910204B091030429
:100D10004FBF821B930B08952FB7F8948091000466
:100D200090910104A0910204B09103042FBF089593
:100D30008091A20381111092A20308958091A103D2
:100D40009091A003892B90919F03892B8093C601DA
:100D50009091A2039923A1F0892B8093C6018091E1
:100D60001C01882341F18091AF0387FF24C08EE1ED
:100D7000E8ECF1E090E0815000F591110E949806B6
:100D8000E091B403F091B5033097E1F080911C013C
:100D9000882359F08091AF0387FF07C08091C60177
:100DA0008093C70185E08093C6010280F381E02D26
:100DB00086EC91E0099486E0DBCF21912223D9F2E1
:100DC0009F5FD9CF089590911C019923D1F0909104
:100DD000AF0397FF16C0E82FE695E695E695EE314E
:100DE000E0F4F0E0EA53FE4F282F277081E090E016
:100DF00001C0880F2A95EAF7809592818923828322
:100E00000895E8ECF1E09191891303C0DF01119797
:100E10001C9291E0EE3CF907B1F7089590911C0106
:100E20009923C1F09091AF0397FF14C0E82FE69586
:100E3000E695E695EE31F8F4F0E0EA53FE4F877060
:100E400021E030E001C0220F8A95EAF78281822BEF
:100E500082830895A8ECB1E0EFEF90E02D91821726
:100E600051F0EF3F19F4211101C0E92F9F5F963037
:100E7000A9F7EF3F09F408950E2E000CFF0BEA537B
:100E8000FE4FE6CF2CE0929F800D1124982F977093
:100E900086958695869525E0829FF0011124E0587D
:100EA000FC4F50E040E080E0219130E0092E02C08C
:100EB000369527950A94E2F721703327042E01C056
:100EC000220F0A94EAF7822B4F5F5F4F453051059E
:100ED00059F708952CE0929F800D1124982F977058
:100EE00041E001C0440F9A95EAF78695869586956C
:100EF00095E0899FF0011124E058FC4F90E080E0DC
:100F000070E05191DF0111979B01082E02C03695C8
:100F100027950A94E2F72170219525272423252778
:100F20002C9301968530910561F7089580917F0398
:100F300090914E03981301C008958F5F8770FACF88
:100F4000882341F080959091A10389238093A10388
:100F50000C949E060895882339F09091A103982B54
:100F60009093A1030C949E06089520913E03309126
:100F70003F032817390771F090933F0380933E0396
:100F8000E091B403F091B503309721F00084F1852E
:100F9000E02D0994089520913C0330913D032817DA
:100FA000390771F090933D0380933C03E091B403C3
:100FB000F091B503309721F00680F781E02D099478
:100FC0000895E091B403F091B503309721F00190BA
:100FD000F081E02D099480E00895FA01811101C0AB
:100FE000FB0109948091F303982F9E7F61F4817037
:100FF00082608093F3038091F603853B18F084EBC5
:101000008093F60308958635B0F381708465F1CF3F
:10101000AF92BF92DF92EF92FF920F931F93CF9305
:10102000DF93182F062FE901453B08F044EBE42F2E
:10103000F0E0EA50FE4F011110C0E4915E2F4E2FF8
:101040004983E8835A83DF91CF911F910F91FF90DD
:10105000EF90DF90BF90AF900895202F30E0449143
:10106000D42EE42EF12C56E0159FC0011124EFEF91
:10107000F0E0BF010E94EA30812F90E0880F991FB5
:1010800055E5569FD001579FB00D11248A1B9B0B2D
:10109000982F990F890F5F01A21AB30AAE9CD00155
:1010A000AF9CB00DBE9CB00D11245B2F089F80013A
:1010B0001124012F11275F01A01AB10AAE9C8001F3
:1010C000AF9C100DBE9C100D11245F01A81AB10831
:1010D000A29EC001A39E900DB29E900D1124892F57
:1010E0009927E81BF90BEE9DC001EF9D900DFE9D29
:1010F000900D1124E92F62307105A1F050F46115B3
:10110000710509F49DCF6130710581F0EB2F512FEE
:1011100097CF6430710569F080F06630710509F48D
:101120008FCFF4CFE42F4B2F592F8ACFE42F412FAD
:1011300087CFEB2F542F492F83CF4B2F5D2DE12FDE
:101140007FCF0E948C069C019091E2038091E30383
:10115000982B21F03093DF032093DE039091E4037A
:101160008091E503982B21F03093DC032093DB037F
:10117000E091B403F091B503309749F082E0809399
:10118000E0030480F581E02D80EE93E0099408955A
:1011900090E080E00E94CB0790E080E00E94B507DD
:1011A0001092A00310929F030E949E0686E0E0EE3C
:1011B000F3E0DF011D928A95E9F71092DD031092AA
:1011C000DA03109247030C94A1086093A303709371
:1011D000A4038093A5039093A6030C94C8084091A0
:1011E000E203803F59F48091E30387FF0DC0109222
:1011F000E30341110BC01092DD0308C0813F81F46D
:101200008091E30318169CF3442381F08091E4035A
:101210009091E503892B09F05AC01092DA030895E2
:10122000823F49F447FFF0CF1092E2038091E3033D
:101230008111ECCFE0CF833F19F41416ACF3E4CF67
:101240009091E403893F29F41916F4F61092E4030F
:10125000DBCF8A3F19F497FFD7CFF8CF9091E50302
:101260008B3F29F497FFD0CF1092E503CDCF8C3F71
:1012700019F41916CCF3C8CF9CE0980F953090F470
:10128000845F990B21E030E0B90102C0660F771F3F
:101290008A95E2F7CB0180959091E10389238093B1
:1012A000E103B2CF8D3F31F4809147038E7F80936D
:1012B0004703AACF8E3F21F4809147038D7FF7CF5C
:1012C0008F3F09F0A1CF809147038B7FF0CF089526
:1012D000882309F459C0823871F40E94E10781FF24
:1012E00053C089E30E940E070E949E0689E30E9474
:1012F000E3060C949E06833859F40E94E10780FFB0
:1013000043C083E50E940E070E949E0683E5EFCF4F
:10131000843859F40E94E10782FF36C087E40E94B6
:101320000E070E949E0687E4E2CF9CEF980F913A49
:10133000F0F290E2980F983088F4877021E030E066
:10134000A90102C0440F551F8A95E2F7CA01809592
:101350009091A10389238093A103CBCF9BE5980FA4
:10136000933020F490E080E00C94CB0798E5980F40
:10137000973120F490E080E00C94B507803F20F096
:101380000E94EF080C94A10808958091470380FD06
:1013900016C081FD16C082FD16C08091DA03882335
:1013A000A1F0883280F428E0829FC001112468E215
:1013B00070E00E94FE30862F672B39F0089582E09E
:1013C000089584E0089588E0089581E0089580916B
:1013D000470380FD14C081FD14C082FD16C08091BA
:1013E000DD03882381F0843180F422E3829FC001F1
:1013F000112464E170E00E94FE30862F08958CE095
:10140000089589E1089585E0089582E30895803F75
:1014100031F40E94E70981958093E3030895813FA9
:1014200019F40E94E709F8CF823F31F40E94E709DE
:1014300081958093E2030895833F19F40E94E709A0
:10144000F8CF893F29F40E94C5098093E4030895E9
:101450008A3F21F40E94C5098195F7CF8B3F31F473
:101460000E94C50981958093E50308958C3F19F486
:101470000E94C509F8CF9CE0980F953070F4845F06
:10148000990B21E030E001C0220F8A95EAF78091A4
:10149000E103822B8093E10308958D3F31F4809125
:1014A000470381608093470308958E3F21F4809124
:1014B00047038260F7CF8F3FB9F78091470384607D
:1014C000F1CFF894E82FE295EF70F0E031A1282FEA
:1014D0002F7081E090E001C0880F2A95EAF7982FDD
:1014E0009095932391A392A1892B82A37894089538
:1014F0009091AF0392FF06C0282F28712830F9F48D
:10150000877F846093FF06C0282F28712831F1F46B
:10151000877E84612091B00320FF06C0382F387188
:101520003830D9F4877F816021FF06C0282F2871C9
:101530002831D1F4877E816194FD877E0895282F1C
:1015400024712430F9F68B7F8860DCCF282F24713A
:10155000243101F78B7E8861DDCF382F3171313036
:1015600019F78E7F8860E0CF282F2171213121F774
:101570008E7E8861E1CFCF9384E090E00E94A0311D
:10158000C82F81E290E00E94A031982F8C2FCF913C
:1015900008950F931F93CF93DF93C42FD0E0CC0F08
:1015A000DD1F28E1629FC00DD11D112430E6839F0D
:1015B000C00DD11D1124CE0186960E94A031082FA6
:1015C00010E0102F0027CE0187960E94A0319801CD
:1015D000282BC901DF91CF911F910F910895462FBC
:1015E0008A3038F4743028F46C3018F4672F0C9477
:1015F000C90A90E080E00895CF93DF930E94EF0A3C
:10160000EC0182389105A9F1D8F58133910509F4EF
:1016100096C048F58932910509F48AC08A9709F481
:1016200095C0C11521E5D20708F0BCC0C11530E551
:10163000D30708F014C1C83ED10508F09CC0C03ED5
:10164000D10560F5C83AD10508F087C0C53AD10583
:1016500008F0FDC0C130D10509F12097F9F0C43080
:10166000D105E0F440C08533910509F45AC0C9970B
:10167000C1F68091AF03837089F0C0EED0E00EC058
:10168000833E910599F170F4803E910501F1823E0F
:10169000910539F68091AF0382FD21C0CE01DF9123
:1016A000CF910895863E910561F1873E910571F1D4
:1016B000843E910509F0B5CF8091B00381FFEECF54
:1016C0008091AF03C7EED0E084FD0DC0E7CF8091DD
:1016D000AF0380FD12C19091B00390FFDFCFC3EE46
:1016E000D0E084FFDBCFD0E0C0E0D8CF8091AF0363
:1016F00082FD06C19091B00390FDBFCF84FFCECF95
:10170000F2CF8091AF0383FDDDCFC8CF8091AF03CF
:1017100083FDF9C09091B00391FFF0CFC4EED0E00B
:10172000BDCF8091AF0385FFB9CFC9E2D0E0B6CF7E
:101730008091AF0385FFB2CFC5E3D0E0AFCF8091FA
:10174000AF0386FFABCFCAE2D0E0A8CF8091AF0352
:1017500086FFA4CFC1E3D0E0A1CFCF3BD10518F6DF
:10176000C85AD0E0CC0FDD1FC55BDE4F0990D88191
:10177000C02DD46493CFC11540E2D40758F4C115ED
:1017800081E0D80708F08ACFC03FD10508F4ABCF7D
:10179000D06584CFC11590E4D90708F4A4CFDF70D9
:1017A000D06A7CCFC11525E5D20700F5C11534E517
:1017B000D30708F08AC0C11543E5D40708F071C00B
:1017C000C11582E5D80708F467C0CE018370992758
:1017D00021E030E002C0220F331F8A95E2F7C69560
:1017E000C69580E2C89FE001112452C0C11599E559
:1017F000D907A8F4C11528E5D20708F06BC0C115B8
:1018000036E5D30708F06FCF8C2F0E94780AC82FD7
:10181000D0E0DC2FCC27CC27DF71D0623FCFC115C1
:101820004AE5D40708F45BC0CE019056811590427A
:1018300008F059CF8D2F8F710E94780A90E0982F71
:10184000882788279F719C012C2BE901E6CFC55A78
:10185000D0E0C85BDE4FC881D0E0D0641FCFCE019E
:10186000E4E096958795EA95E1F783702C2F26950D
:101870002695237040E2249F90011124382B8C2F51
:101880008370C1E0D0E002C0CC0FDD1F8A95E2F783
:10189000C22BD32BDC6802CFDC2FCC27C16FD06AE0
:1018A000FDCECE018370992721E030E002C0220FE7
:1018B000331F8A95E2F7C695C69590E2C99FE0016D
:1018C0001124C22BD32BDA68E9CEDC2FCC27C46FCE
:1018D000D06AE4CEDC2FCC27C06FD06ADFCE8C2F4D
:1018E0008F700E94780A34E0D695C7953A95E1F753
:1018F000CF709C2FEC01D069D1CEC9E3D0E0CECE21
:10190000C2EED0E0CBCEC6EED0E0C8CEBF92CF9232
:10191000DF92EF92FF920F931F93CF93DF938C018F
:10192000C0903304D0903404E0903504F090360435
:101930008091A3039091A403A091A503B091A60365
:10194000C82AD92AEA2AFB2ACFE1D0E0BC2ED70147
:10195000C6010C2E04C0B695A795979587950A9455
:10196000D2F780FD0EC0219788F7B12C8B2DDF9127
:10197000CF911F910F91FF90EF90DF90CF90BF908C
:101980000895B8018C2F0E94FC0A019761F3EECFF5
:10199000CF93DF93EC010E94860CBE01DF91CF91C3
:1019A0000C94FC0A0E94C80C292F2F7092959F70EE
:1019B00092509E3078F4E92FF0E0E35BFD4C0C94FC
:1019C0001231803F19F020F4883E20F481E0089520
:1019D000843FE1F380E00895883EC0F3813FD1F772
:1019E000F5CF822F86958695869508956F927F9282
:1019F0008F929F92AF92BF92CF92DF92EF92FF921F
:101A00000F931F93CF93DF9384E2C82E84E0D82EE8
:101A10009EE9E92EF12CE701C056D10936011BC021
:101A2000F50185909490692DC8010E94B431682D0C
:101A3000C80101960E94B43182E0A80EB11C0E5F6D
:101A40001F4FC017D10761F788E1680E711C6896B7
:101A5000CE15DF0529F08E01085111095301E0CFA1
:101A60007E0180E6E80EF11C80E6C80ED11C8EE5F2
:101A7000E81684E0F80679F6DF91CF911F910F9177
:101A8000FF90EF90DF90CF90BF90AF909F908F909E
:101A90007F906F900895CF93DF93C6EED3E060E020
:101AA000CE010E94B4312196C11588E0D807B9F75C
:101AB000DF91CF910895CF93DF9300D00F92CDB7F0
:101AC000DEB790912904943011F589837B836A8372
:101AD0009093E9008FEF9091E800815095FD06C04A
:101AE00095ED9A95F1F700008111F5CF8091E8000E
:101AF00085FF0DC050E040E063E070E0CE0101964C
:101B00000E943D058091E8008E778093E8000F9059
:101B10000F900F90DF91CF910895BC0184E00C9459
:101B20005B0DBC0183E00C945B0D9C0184E0809311
:101B3000E9009FEF8091E800915085FD06C085ED9A
:101B40008A95F1F700009111F5CF8091E80085FFAB
:101B50000CC050E040E066E070E0C9010E943D0525
:101B60008091E8008E778093E8000895CF93DF930B
:101B7000EC0180911C018823B1F18091AF0387FFB4
:101B800032C060E284E08093E9008FEF9091E8003A
:101B9000815095FD06C095ED9A95F1F700008111F1
:101BA000F5CF8091E80085FF1BC080911C0170E09B
:101BB00050E040E0811104C050E040E068E070E097
:101BC000CE010E943D058091E8008E778093E80069
:101BD00080E2FE01A7E0B4E001900D928A95E1F762
:101BE000DF91CF91089568E081E0CDCF81E08093CF
:101BF000E00080E28093D8001092C9008FE19EE45B
:101C00000197F1F700C0000087E090EBDC018093C2
:101C10003A0490933B04A0933C04B0933D0488E1C4
:101C20009CE00FB6F894A895809360000FBE909347
:101C30006000FFCFCF93C82F882309F4AEC082384D
:101C4000C1F40E94E10781FDA8C089E30E940E074C
:101C50000E949E062FEF81EE94E02150804090403C
:101C6000E1F700C0000089E30E94E306CF910C94E5
:101C70009E068338A1F40E94E10780FD8EC083E5B3
:101C80000E940E070E949E062FEF81EE94E02150E5
:101C900080409040E1F700C0000083E5E5CF843844
:101CA000A1F40E94E10782FD78C087E40E940E073C
:101CB0000E949E062FEF81EE94E0215080409040DC
:101CC000E1F700C0000087E4CFCF8CEF8C0F813AA2
:101CD00088F580911C01882301F18091AF0387FF73
:101CE0001CC0EC2FE695E695E695F0E0EA53FE4F32
:101CF000828190E04C2F477021E030E002C0220F3B
:101D0000331F4A95E2F782239323892B79F08C2F96
:101D10000E94E3060E949E0609C0E8ECF1E0819172
:101D2000C817A9F321E0EE3CF207C9F78C2F0E94F7
:101D30000E079CCF80E28C0F883068F4C77021E0DA
:101D400030E001C0220FCA95EAF78091A103822BEF
:101D50008093A1038BCFEBE5EC0FE33040F4F0E090
:101D6000E85BFE4F808190E0CF910C94CB07E8E5D3
:101D7000EC0FE73150F4F0E0EE0FFF1FE55BFE4F94
:101D800080819181CF910C94B507C03F30F08C2FAA
:101D90000E94070ACF910C94A108CF9108951F9338
:101DA000CF93DF93182FD0E0C0E0893311F4C0E562
:101DB000D0E0812F0E941A0E209731F4812FDF91FD
:101DC000CF911F910C9468098FE99FE00197F1F77B
:101DD00000C000002197F0CF0F931F93CF93DF93A4
:101DE000C62FD42F022FFC0182818823A1F060939B
:101DF00039040E948C069093380480933704C7708E
:101E000081E001C0880FCA95EAF7DF91CF911F9159
:101E10000F910C94AB0780913904681335C0809101
:101E20003704909138040E947D06883C910560F546
:101E300010E21D0FCD17B9F080E28C0F883040F40E
:101E4000C77081E001C0880FCA95EAF70E94A00719
:101E5000183048F481E09D2F977001C0880F9A9543
:101E6000EAF70E94AB07802F0E94CF0E183098F43B
:101E7000D77081E001C0880FDA95EAF7DF91CF9142
:101E80001F910F910C94A007C77081E001C0880FCB
:101E9000CA95EAF7F3CFDF91CF911F910F91089583
:101EA000AF92BF92CF92DF92EF92FF920F931F9368
:101EB000CF93DF9309E711E0C7EAD3E0C12CD12C1F
:101EC000EE24E394F12CF80181918F01F894E82F2E
:101ED000E295EF70F0E021A18F70A70102C0440FDE
:101EE000551F8A95E2F7CA01922F982B91A392A1D0
:101EF0008095892382A3789400C0EDE7F1E030E07B
:101F000020E0B12CA12C4191A42FA295AF70B0E09C
:101F100090968C9190E04F7002C0959587954A9568
:101F2000E2F780FD5EC0C701022E02C0880F991F34
:101F30000A94E2F7A82AB92A2F5F3F4F2C303105C7
:101F400011F7F801319780810E94610A53E0C516AC
:101F500019F080EA8A95F1F788819981A816B90667
:101F600009F442C0B982A88281E0D82AC39422969B
:101F7000E4E0CE12A8CFDD20C9F181E08093E80132
:101F80000E948C069093E7018093E6018091E60120
:101F90009091E7010E947D06069760F18091A7036A
:101FA0009091A8039093F9038093F8038091A9037B
:101FB0009091AA039093FB038093FA038091AB0363
:101FC0009091AC039093FD038093FC038091AD034B
:101FD0009091AE039093FF038093FE031092E8016B
:101FE00009C090E080E0A6CF80E0BFCF8091E801FB
:101FF0008111CCCF80914503882371F080914303F8
:10200000909144030E947D06893E934028F082EE21
:102010000E9468091092450380914203882389F049
:1020200080914003909141030E947D06893E934038
:1020300040F081EE0E94680983EE0E9468091092C8
:1020400042038D2DDF91CF911F910F91FF90EF9063
:10205000DF90CF90BF90AF9008956BEE7EEF90E051
:1020600080E00E94D23160E082E090E00E94B431D2
:1020700060E083E090E00E94B4311092A3031092DC
:10208000A4031092A5031092A60360E084E090E000
:102090000E94B43160E081E290E00E94B43160E0DF
:1020A00085E090E00E94B43160E086E090E00E941C
:1020B000B4316FEF87E090E00E94B43140E050E02F
:1020C000BA0188E090E00E94C63160E08DE090E0C7
:1020D0000E94B43140E050E0BA0188E190E00E94F3
:1020E000C63160E087E190E00E94B43140E050E00A
:1020F000BA018CE190E00E94C63160E080E290E09D
:102100000E94B43140E050E0BA0188E190E00E94C2
:10211000C63140E050E0BA018FE090E00E94C63145
:1021200040E050E0BA0183E190E00C94C631CF92D8
:10213000DF92EF92FF926B017C010E94F207B701E0
:10214000A60188E090E0FF90EF90DF90CF900C9494
:10215000C6318091F703882319F081508093F703EB
:102160006091F3037091F4038091F5039091F6036D
:102170000C9497108091F703833018F48F5F80934D
:10218000F7036091F3037091F4038091F50390914C
:10219000F6030C949710E3EFF3E083E08083118261
:1021A0008FEF828384EB83831482608171818281CB
:1021B00093810C9497101092A10380911C01E8EC7C
:1021C000F1E0882359F08091AF0387FF07C08EE1CB
:1021D000DF011D928A95E9F70C94C80886E0F8CFD4
:1021E0001F93CF93DF93CDB7DEB7AA970FB6F894BE
:1021F000DEBF0FBECDBF8BE294E02091F100DC0189
:102200002D93CD01B4E083339B07B9F780912C0463
:10221000833009F471C0B8F4813009F448C08230C9
:1022200009F4B2C08091E80083FF3AC180912B0489
:1022300090912C049A3008F033C1E92FF0E0E55A70
:10224000FD4C0C9412318A3009F48DC08B3009F4A6
:1022500070C0893039F780912B04813219F7809151
:102260002F0490913004009711F00297D9F68091D5
:10227000E800877F8093E8008091E80082FF37C004
:102280008091F2009091F300029729F48091F1007F
:102290008B7F813021F48091F1008093060480913E
:1022A000E8008B778093E8000E946705BBCF8091A0
:1022B0002B04813A09F0B6CF8091E800877F8093A4
:1022C000E80080912F0490913004892B61F460E242
:1022D00087E094E070E00E941A068091E8008B7716
:1022E0008093E8009FCF60E090E080E0F3CF8091A2
:1022F00029048111C1CF96CF80912B04813A09F036
:1023000091CF80912F0490913004892B09F08ACFCE
:102310008091E800877F8093E8008091E80080FF4B
:10232000FCCF80911C018093F1008091E8008E77B2
:10233000B9CF80912B04813209F074CF80912F04A2
:1023400090913004892B09F06DCF8091E800877F50
:102350008093E8000E94670580912D0480931C0102
:102360000E94DB105FCF80912B04813209F05ACF9D
:102370008091E800877F8093E8000E946705809144
:102380002E04809305044ECF80912B04813A09F0EE
:1023900049CF8091E800877F8093E8008091E80032
:1023A00080FFFCCF80910504BECF803899F0823841
:1023B00009F076C080912F048F70873008F070C0CC
:1023C0008093E9008091EB0085FB882780F91092CB
:1023D000E90006C080912704909128049111826041
:1023E0009091E800977F9093E8008093F10010921D
:1023F000F1008091E8008E77B5C1882309F4A2C16D
:10240000823009F04DC080912D048111A6C18091C8
:102410002F048F702FEF280F263008F041C08093D3
:10242000E9002091EB0020FF98C1933031F48091B6
:10243000EB0080628093EB0090C19091EB00906183
:102440009093EB0021E030E001C0220F8A95EAF77B
:102450002093EA001092EA008091EB008860EACFB6
:1024600081111EC010912D041F778091E3008078A8
:10247000812B8093E3008091E800877F8093E800C0
:102480000E9467058091E80080FFFCCF8091E30007
:1024900080688093E30082E0111183E08093290437
:1024A0008091E80083FF0AC08091E800877F8093D5
:1024B000E8008091EB0080628093EB00AA960FB653
:1024C000F894DEBF0FBECDBFDF91CF911F9108956D
:1024D0008058823028F720912D0430912E042C3D15
:1024E000E3E03E07A1F583E08A838AE289834FB760
:1024F000F894DE01139620E03EE051E2E32FF0E095
:1025000050935700E49120FF03C0E295EF703F5FC6
:10251000EF708E2F90E0EA30C0F0C7968D939D93B8
:102520002F5F243159F74FBF8091E800877F809358
:10253000E8006AE270E0CE0101960E941A068091DE
:10254000E8008B778093E800ABCFC096E7CF80910F
:102550002F0490913004432F55274330510509F43F
:102560004AC078F54130510509F47AC08BE590E016
:10257000E9EBF8E04230510509F092CF2091E800F4
:10258000277F2093E8002091310430913204821794
:10259000930708F49C0140E02115310509F065C05E
:1025A000411163C08091E80082FDC9CF8091290468
:1025B000882329F2853019F28091E80083FFF2CF59
:1025C000BECF4132510509F43CC04232510509F0F9
:1025D00067CF8330910508F063CFFC01EE0FFF1F3A
:1025E000E954FE4F0190F081E02D8C549E4FDC01A8
:1025F0008C9190E01AC0332721303105D1F021159C
:10260000310561F02230310509F04ACFE6E2F9E008
:10261000E4918E2F90E0E6E2F9E007C0E4E4F9E00F
:10262000E4918E2F90E0E4E4F9E0009709F438CFCC
:10263000A5CFE0E3F9E0E4918E2F90E0E0E3F9E04C
:10264000F4CF8330910508F02BCF880F991FFC0140
:10265000E354FE4F0190F081E02D89E090E08ECFB1
:1026600082E190E0E4E1F9E089CF809129048823B8
:1026700009F465CF853009F462CF8091E80083FDCD
:102680005ECF8091E80082FD8DCF8091E80080FFD1
:1026900083CF8091F2009091F3002115310519F05C
:1026A0008830910550F041E0089709F040E08091B2
:1026B000E8008E778093E8006FCF44914093F1005B
:1026C0003196215031090196E8CF803809F0E8CEE3
:1026D0008091E800877F8093E80080912A048093AE
:1026E000F10087CE8111DCCE10912D04123008F05C
:1026F000D7CE8091E800877F8093E80010932A046A
:102700000E946705112311F084E005C08091E30069
:1027100087FDFACF81E08093290442E061EC81E0FB
:102720000E94860542E261EC84E00E94860542E256
:1027300061EC82E00E94860542E260EC83E00E9448
:102740008605AECE80912D04813009F0A9CE81E0BE
:10275000933009F080E0809328041092E900809182
:10276000E800877F8093E8000E94670599CE60911A
:10277000F303669570E04BE050E084E091E00E9446
:102780009331892B19F481E08093F1030E948C0628
:102790009093BA038093B90308955F926F927F92EA
:1027A0008F929F92AF92BF92CF92DF92EF92FF9261
:1027B0000F931F93CF93DF93CDB7DEB7CE57D109D9
:1027C0000FB6F894DEBF0FBECDBF8091F30380FD3E
:1027D0000AC0ECEEF1E0118210821282339622E000
:1027E000EA36F207C1F78090B2039090B3038114E8
:1027F000910409F459C08091B803811155C0D12CBE
:10280000C12C66246394712C13E0512E8091F20345
:1028100093010C2C01C0220F0A94EAF7822309F4D9
:102820003BC0F601EE0FFF1FE80DF91DE590F49097
:10283000E114F104C9F145E050E0B701CE01019681
:102840000E948A3109810F3F39F18A81800F9927CF
:10285000991F8B32910514F08AE290E05C01AA0C7A
:10286000BB1C8A0D9B1DFC01E451FE4F5F01059DC1
:102870008001112404511E4F0A151B0520F0F5E0BC
:10288000EF0EF11CD8CF98014D816C818B810E9495
:1028900008080D5F1F4FF0CF2FEFC21AD20A38E0A1
:1028A000C316D10409F0B2CF7BEFA72E72E0B72E8A
:1028B000DE011196AE0141585F4F1A2F7B2FF501B3
:1028C0008491282F30E0C901880F991F820F931F30
:1028D00084519E4FFC01C080D180E280CD92DD9278
:1028E000ED92FFEFAF1ABF0AA417B50741F76E9A32
:1028F0003EB13F7B2EB120646FB7F894812F972FA4
:10290000FC017191CF01E8E02EB9000000C077FF13
:102910003EB9770F000000C000C000C03EB900C043
:10292000EA9591F78417950759F76FBF8FE594E003
:102930000197F1F700C00000C258DF4F0FB6F894BE
:10294000DEBF0FBECDBFDF91CF911F910F91FF90E2
:10295000EF90DF90CF90BF90AF909F908F907F903F
:102960006F905F9008954F925F926F927F928F92D7
:102970009F92AF92BF92CF92DF92EF92FF920F930E
:102980001F93CF93DF93FC016280448081E08483B6
:10299000E4E2F3E07490E3EAF3E0E491CAE6D2E023
:1029A0003CEEE32E31E0F32E4CE3C42E43E0D42E74
:1029B00052E0A52EBB24B39488248A94912C5524EC
:1029C0005A94E7190E2F10E082E0861530F08091BE
:1029D000F40388838091F5038983411021C01B8211
:1029E0001A8297014A81698188810E940808259688
:1029F00083E0E80EF11CCC16DD0631F7DF91CF91B4
:102A00001F910F91FF90EF90DF90CF90BF90AF900C
:102A10009F908F907F906F905F904F900C94CD130C
:102A20008B818823E9F081508B83859DC00111241F
:102A30006C8170E00E94EA30FB01FF27EC5DFC4FE7
:102A40008491E82FE719E59DC0011124B8010E9487
:102A5000EA308091F603689FB00111247A83C1CFD8
:102A60000E947A312091F603269521582A9DA001D3
:102A70002B9D500D1124452F5527841795070CF0D9
:102A8000B0CF82E0861588F40E947A31B4010E94AA
:102A9000FE3088830E947A312091F5032695622FBB
:102AA00070E00E94FE30280F29831A828091F6037D
:102AB000893C20F088EC8C838B8393CF8431D8F7CA
:102AC00084E1F9CFEF92FF921F93CF93DF93EC0154
:102AD0008CEEE82E81E0F82E10E08C819701409179
:102AE000F6036091F503810F0E9408081A5F83E0E6
:102AF000E80EF11C1C3F89F70E94CD139A818C814E
:102B000090FF08C08F5F8C83DF91CF911F91FF9062
:102B1000EF9008958150F7CFBF92CF92DF92EF925E
:102B2000FF920F931F93CF93DF93FC018281DD24EB
:102B3000DA9480FD02C0DD24D3940CEE11E0D0E0E5
:102B4000C0E02AE2B22EF80111821082128294E0D3
:102B5000E92EF12CC12C8091E9018C0D8B320CF403
:102B60003DC06B2D0E94DC30892F082E000C990B84
:102B70008C179D0791F48091F6038E9DA0018F9D87
:102B8000500D11245595479555954795980160919D
:102B9000F5038091F4030E940808CD0CF1E0EF1AD0
:102BA000F108C9F621960D5F1F4FCA32D10559F6BB
:102BB0000E94CD138091E90191E0D91215C08111D5
:102BC00011C089E28093E901DF91CF911F910F91AC
:102BD000FF90EF90DF90CF90BF90089587FFC5CF13
:102BE000865DC3CF8150EECF90E00196BE010E947A
:102BF000FE30E8CF0F931F93CF93DF93CCEED1E05D
:102C0000FE01118210821282339682E0EA36F807C2
:102C1000C1F710E000E08091EA01082E000C990B4A
:102C2000081719078CF180911001082E000C990BE0
:102C3000801791074CF19E014091F6036091F503D6
:102C40008091F4030E9408080F5F1F4F23960A32F9
:102C5000110509F70E94CD1380910F019091EA01AF
:102C6000980F9093EA0120911001280F20931001F2
:102C7000121614F499321CF0819580930F01DF91A4
:102C8000CF911F910F910895198218821A82DCCF7B
:102C90008F929F92AF92BF92CF92DF92EF92FF926C
:102CA0000F931F93CF93DF93EC014C81042F10E01F
:102CB0009801D8010E943C329B01AC010E9407326E
:102CC0004B015C01E0E2F0E0E01BF10BA5E5B0E0B8
:102CD000AC019B010E9407326B017C019F01DF0167
:102CE0000E941F319B01AC010E9412329B01AC017A
:102CF000280D391D4A1D5B1DC701B6010E941A32FD
:102D0000F22E822F90E039E23F15D8F143E0249F64
:102D10009001112435952795122F10959CEEC92E00
:102D200091E0D92E00E085E5E82EEF188E2D01FD0B
:102D30008F2D9601412F6091F5030E9408080F5FC7
:102D400053E0C50ED11C0A3289F70E94CD139C8135
:102D500081E0992319F0903219F48FEF80931101DB
:102D600080911101890F8C83DF91CF911F910F9179
:102D7000FF90EF90DF90CF90BF90AF909F908F909B
:102D8000089525E530E0A901481B590BCA019A01B5
:102D9000220F331F280F391F37FFBCCF2F5F3F4F44
:102DA000B9CFEF92FF920F931F93CF93DF938C01D4
:102DB000CCEED1E0F12CE12CF80194816091F50387
:102DC0008091F403F5E1EF16F104FCF49923F9F096
:102DD0009E014091F6030E9408082FEFE21AF20AC2
:102DE00023968AE2E816F10439F70E94CD13F80120
:102DF000848190E00196817099278483DF91CF913F
:102E00001F910F91FF90EF900895992309F39E0170
:102E100040E0E1CF9091F30390FF0CC0ECEEF1E0C5
:102E2000818360834283339692E0EA36F907C1F7E3
:102E30000C94CD1308950F931F93CF93DF9300D07D
:102E40000F92CDB7DEB78C018091EB0181110AC0E2
:102E50009E012F5F3F4F44EB6FEF0E9408088A816D
:102E60008093EB01F8016481613069F08091EB019E
:102E700040E0662361F040E0623011F44091EB01E4
:102E800080E060E004C06091EB0140E080E00E94DF
:102E90000A17F801848190E0019663E070E00E94D7
:102EA000FE3084830F900F900F90DF91CF911F9190
:102EB0000F910895CF93DF9300D00F92CDB7DEB777
:102EC0009091F30390FF0AC09E012F5F3F4F0E9435
:102ED00008084B8169818A810E940A170F900F9020
:102EE0000F90DF91CF910895CF93DF93EC01EC81A8
:102EF000F0E0EC5DFC4F4491E3EFF3E0628181810F
:102F00000E945A178C818F5F8C83DF91CF91089537
:102F1000CF93DF93EC01E3EFF3E0438162818C8197
:102F20000E945A178C818F5F8C83DF91CF91089517
:102F30005F926F927F928F929F92AF92BF92CF9249
:102F4000DF92EF92FF920F931F93CF93DF9300D006
:102F50000F92CDB7DEB7182F762E042F622E9091E8
:102F6000F30390FF29C0E92FE695AE2FB0E0A35EF2
:102F7000BE4F8C918093F0039E7F923081F59E012D
:102F80002F5F3F4F812F0E9408084B8169818A8102
:102F90000E940A171093F4037092F5030093F6034E
:102FA000662051F06091F3037091F4038091F50372
:102FB0009091F6030E9497100F900F900F90DF9161
:102FC000CF911F910F91FF90EF90DF90CF90BF9026
:102FD000AF909F908F907F906F905F900895823018
:102FE00019F40091F603D6CF863019F41091F4034A
:102FF000D1CF8930D9F3893169F6E9518E2F8170AB
:10300000582EE695F0E0EA50FD4FA590B490BB2411
:103010008CEEE82E81E0F82ED12CC12C9AE2892E7C
:10302000912CC601B4010E94EA30812F511013C0C7
:10303000860F9701402F672D0E940808CA0CDB1CE1
:1030400083E0E80EF11C8AE6E81682E0F80649F70C
:103050000E94CD139FCF861BECCF20E00C949817D5
:103060009091F30390FF35C09170811128C0926058
:103070009093F303662351F06091F3037091F4038E
:103080008091F5039091F6030E9497106091F303ED
:10309000669570E04BE050E084E091E00E9493314F
:1030A000892BA1F01092F10381E08093BC03409141
:1030B000F6036091F5038091F4030C942D188B3284
:1030C00010F09465D5CF880F982BD2CF0E94B713FC
:1030D000EBCF089521E030E0A90102C0440F551F55
:1030E0008A95E2F7CA012091F203662399F0822BB8
:1030F0008093F2038091F103811106C08091F30364
:1031000060E086950E9430188091F30380FD05C031
:103110000C94CD1380958223EBCF0895CF93DF934A
:10312000C82FC17082FBDD27D0F981FB662760F9CB
:1031300084E00E946A1861E06C2785E00E946A18AA
:103140006D2F86E0DF91CF910C946A18E3EFF3E0E6
:1031500080818160808360E086950C943018809136
:10316000F3038695815009F48AE261E00C943018EB
:103170008091F30386958F5F8B3208F081E061E0E8
:103180000C9430189091F30390FF07C09695981710
:1031900020F0961710F40C94B81861E00C943018D5
:1031A000CF92DF92EF92FF920F931F936B017C01FE
:1031B00061E0C114D104E104F10409F06C2D6170E7
:1031C00080E00E946A1860E0C114D104E104F104B7
:1031D00041F0D701C601B695A79597958795682FB9
:1031E000617081E00E946A1860E0C114D104E104BA
:1031F000F10459F0D701C60102E0B695A79597955D
:1032000087950A95D1F7682F617082E00E946A184D
:1032100060E0C114D104E104F10459F0D701C60102
:1032200013E0B695A795979587951A95D1F7682FCE
:10323000617083E00E946A18A7016627772780E102
:10324000411551056105710519F4B701A60180E02A
:10325000052F162F272F33270115110521053105BD
:1032600019F0885FB901A8018A019B01F4E0369545
:10327000279517950795FA95D1F7011511052105A1
:10328000310519F08C5FB901A8018A019B01E2E0C8
:103290003695279517950795EA95D1F701151105EC
:1032A0002105310519F08E5FB901A8017695679562
:1032B00057954795452B462B472B09F08F5F81305B
:1032C000E1F0882351F08230F1F0833011F10E9457
:1032D000A6184EE16FEF80E405C00E94A6184EE1EB
:1032E0006FEF82E30E942D18C701B6011F910F9165
:1032F000FF90EF90DF90CF9008950E94A6184EE1C6
:103300006FEF8EE1EFCF0E94A6184EE16FEF8AE6D5
:10331000E9CF0E94A6184EE16FEF87EDE3CF0E9440
:10332000D0186093330470933404809335049093E1
:1033300036040C94C8080F931F9360913304709166
:10334000340480913504909136048B019C01067001
:10335000112722273327063011052105310529F4CD
:1033600068601F910F910C948F19677FFACF0F93AC
:103370001F9341E050E060E070E004C0440F551F2F
:10338000661F771F8A95D2F7CB01BA0160957095B9
:103390008095909500913304109134042091350468
:1033A0003091360460237123822393231F910F9160
:1033B0000C948F1990919E038095892380939E038E
:1033C000282F277071F4282F082E000C330B92172A
:1033D000130639F08595859585950E94B719109249
:1033E0009E0308950F931F9341E050E060E070E06A
:1033F00004C0440F551F661F771F8A95D2F780912E
:10340000330490913404A0913504B09136048A01BC
:103410009B01082B192B2A2B3B2BC901B8011F91AB
:103420000F910C948F193F924F925F926F927F92FF
:103430008F929F92AF92BF92CF92DF92EF92FF92C4
:103440000F931F93CF93DF9300D000D00F92CDB78F
:10345000DEB78C01FC0183819481892B31F080815E
:10346000918189238F3F09F0C3C60F900F900F9071
:103470000F900F90DF91CF911F910F91FF90EF90E0
:10348000DF90CF90BF90AF909F908F907F906F9084
:103490005F904F903F9008950E94860CF82E682F01
:1034A00089819A810E946A0769817A818F2D0E94A1
:1034B000EF0A7C01F8018281882309F48CC6970108
:1034C00022513F452031310508F04DC68FEF97E07E
:1034D0000E94A031FEEEEF0E56EE852E53E0952EA3
:1034E000882381F180919E03877009F4BECFF80193
:1034F0008281882309F4B9CF82E00F900F900F905A
:103500000F900F90DF91CF911F910F91FF90EF904F
:10351000DF90CF90BF90AF909F908F907F906F90F3
:103520005F904F903F900C94DA19811428E0920636
:10353000C9F2C4010E94A031811101C0EA943FEF99
:10354000831A930AE110F1CF1C821B824424439416
:103550004AE0342E74018FEFE81AF80AC4010E9481
:10356000A03189831A82882309F4BCCF9FEF980F7A
:10357000933000F58A83498292E0890E911CC7013D
:103580000E94A0318B83882309F4ACCFFE013196D1
:103590007F01F70120812223E9F2213009F049C09F
:1035A00091818281913041F4F2E0EF0EF11C0E9492
:1035B000CF0E09C04701EACF923049F422E0E20E73
:1035C000F11C0E941A0E3FEFE31AF30AE2CF933088
:1035D00031F432E0E30EF11C0E946809F4CF94301C
:1035E00021F08FEFE81AF80AEECF92E0E90EF11C15
:1035F00030E020E0B7016F5F7F4FF70141818053DA
:10360000990B8A30910550F021503109E0F28FE991
:103610009FE00197F1F700C00000F6CF329EF00165
:10362000339EF00D11249C012E0F3F1F842F7B0130
:10363000E1CFE22FF0E0EC5EF74F5490822F8695B9
:103640008695869590E0FC01EC5FF74F64902770BB
:10365000712C022E02C0759467940A94E2F7E1E09F
:103660006E227724FC01EC50F84FA490B12C022E6E
:1036700002C0B594A7940A94E2F7F1E0AF22BB240C
:10368000FC01EC51F84FC490D12C02C0D594C794E2
:103690002A95E2F721E0C222DD246114710419F0B9
:1036A00081EE0E941A0EA114B10419F086EE0E9458
:1036B0001A0E852D0E94CF0EAB2819F086EE0E94BF
:1036C0006809672819F081EE0E946809CD2809F47D
:1036D0007ACF8CE26CCF81E00E94F2190E949B1994
:1036E00001CF81E00E94B719F9CF82E0F5CF22E83F
:1036F000E2162FE5F20609F4A6C033E8E3163FE52B
:10370000F30609F04AC5882309F4B6C08091420344
:10371000811109C081E08093420381EE0E941A0E5C
:1037200083EE0E941A0E0E948C06909341038093B0
:10373000400381EE0E941A0E80E513C0882369F1D0
:1037400080914503811106C081E08093450382EE9C
:103750000E941A0E0E948C069093440380934303A8
:103760008BE20E941A0E1CC08823A1F080914503B1
:10377000811106C081E08093450382EE0E941A0EFB
:103780000E948C06909344038093430381EE0E9431
:103790001A0EE6CF81EE0E9468098BE20E9468094A
:1037A000F8019281992309F434C510923904F2E0AA
:1037B000EF16FCE5FF0608F47CC126E1E2162CE5D5
:1037C000F20638F097012A5F3C452930310508F0B0
:1037D00070C10E94BB0A9093B0038093AF0330E1A5
:1037E000E3163CE5F30609F433C108F0B2C098E0F3
:1037F000E9169CE5F90609F421C108F07BC0F4E064
:10380000EF16FCE5FF0609F411C108F05DC032E0D7
:10381000E3163CE5F30609F4FFC083E0E8168CE507
:10382000F80609F4FFC06091AF03F090B00384E0A4
:1038300090E00E94B4316F2D81E290E00E94B4319B
:103840000E94DB104FCE8823A9F0809142038111A2
:1038500009C081E08093420381EE0E941A0E83EE3C
:103860000E941A0E0E948C0690934103809340039D
:103870008FE477CF8FE492CF80E590CF35EFE316DA
:103880003CE5F306D1F0A8F027E245EE66EE96EFB0
:10389000E9169CE5F90609F083CFC8010E94EC0EF9
:1038A00021CE27E245EE65EEF8CF26E241EE60EE4E
:1038B000F4CF27E245EE64EEF0CF26E241EE62EE71
:1038C000ECCF28E241E0EFCF8091AF03806196E03A
:1038D000E9169CE5F90609F4A2C08091AF0388605F
:1038E000E7E0EE16ECE5FE0608F499C08091AF0320
:1038F000806295C08091AF038D7FFCE0EF16FCE500
:10390000FF0609F48CC078F48091AF038C603AE034
:10391000E3163CE5F30609F482C008F493C08091F5
:10392000AF038E7F7CC08091AF03877F9EE0E91656
:103930009CE5F90609F473C08091AF038B7FEFE03B
:10394000EE16ECE5FE0608F46AC08091AF038F7EA8
:1039500066C0FBEFEF16FCE5FF0609F46BC068F5E7
:1039600033E1E3163CE5F30609F47AC090F491E103
:10397000E9169CE5F90609F46FC0E2E1EE16ECE504
:10398000FE0609F050CF0E94DB108091AF038F77C5
:1039900046C0F5E1EF16FCE5FF0609F469C008F43E
:1039A0007DC08091B00381603AEFE3163CE5F306F9
:1039B00009F039CF8093B00336CF8FEFE8168CE54E
:1039C000F80609F451C0A0F48091B0038D7FEDEFAB
:1039D000EE16ECE5FE0671F38091B0038E7FFEEFEC
:1039E000EF16FCE5FF0630F38091B0038360E2CF71
:1039F00021E0E2162DE5F20609F459C008F444C0AE
:103A000060E082E0E8168DE5F80609F00CCF8EE064
:103A100090E00E94B43107CF8091AF038160809322
:103A2000AF0301CF8091AF038260F9CF8091AF03E4
:103A30008460F5CF8091B0038260BCCF8091AF03EA
:103A40008064EDCF0E94DB108091AF038068E7CFE8
:103A50008091AF038F7DE3CF8091AF038F7BDFCF6A
:103A60008091AF03837FDBCF8091B0038C7FA2CFA7
:103A70008091AF0382FB992790F921E0922790FB78
:103A800082F990FB83F9CBCF8091B003982F90956A
:103A900091708E7F892B90FB81F98CCF0E94DB1077
:103AA0009091AF03892F97FB87F98058B8CF61E0D9
:103AB000AECF8091A103E6E1EE16ECE5FE0609F03B
:103AC000B6C38A7A91E009F490E09093460381119D
:103AD00006C089E20E940E070E949E0603CD85E380
:103AE000F9CF85E3A1C38091F30380FF1BC08E7FD4
:103AF0008093F3036091F3037091F4038091F503D5
:103B00009091F6030E9497101092F103FFEF20E7C7
:103B100032E0F15020403040E1F700C000000E9448
:103B2000CD13E0CC81608093F30361E086950E9421
:103B30003018D8CC4FEA58E168EB78E10E94ED07E5
:103B4000D1CC48EB58E16FEA78E1F8CF4BE558E289
:103B500064E678E2F3CF44E658E26BE578E2EECF34
:103B600043E458E26FE478E2E9CF4FE458E263E4DB
:103B700078E2E4CF4BE258E267E378E2DFCF47E355
:103B800058E26BE278E2DACF49EA50E16AEB70E1A1
:103B9000D5CF4AEB50E169EA70E1D0CF61E081E036
:103BA000C6CF65E082E00E94C2189CCC68E086E047
:103BB000FACF6EE089E0F7CF64E18FE0F4CF67E100
:103BC00085E1F1CF61E088E1B2CF62E289E1EBCF3C
:103BD00061E083E2ACCFE1148CE5F80609F447C05C
:103BE000EEEDEE16ECE5FE0609F44EC0F801E080BD
:103BF000F180992309F44BC0C7010E94860CD82E8E
:103C0000682FC7010E946A07B7018D2D0E94FC0A28
:103C10007C01882EF801D280A580A2943FE0A322E7
:103C200080919E038770A1F0CD2CDD2091F08F2D27
:103C3000807F803421F080E28E0D883048F082E071
:103C40000E94DA1980919E038770CC24C39481115D
:103C5000C12C3F2C32942FE03222FBE0F31508F404
:103C600052C0E32DF0E0EB59FD4C0C9412310E9450
:103C7000DB10FFEF24E33CE0F15020403040E1F75F
:103C800000C000000E94F60D0E942D102BCCC70131
:103C90000E944207D82EB8CF2F2D2F70A22E8F2D25
:103CA000807F19F0A29490EFA922DD20C9F0AA200C
:103CB00069F080E28E0D883010F081100BC0809189
:103CC000A103A82AA092A1030E949E068E2D0E9405
:103CD0001A0E19C08091A003A82AA092A003F4CFC5
:103CE0008E2D0E946809AA2071F0A09480E28E0DAA
:103CF000883010F081103FC08091A103A822A092CB
:103D0000A1030E949E06232D2850330B2430310539
:103D100020F40E94E1070E948E18CC2009F4A5CB64
:103D200080919E0380FDA1CBF80112828595859537
:103D300085950E94F219C8010E94131A80919E0372
:103D40008595859585950F900F900F900F900F900A
:103D5000DF91CF911F910F91FF90EF90DF90CF9067
:103D6000BF90AF909F908F907F906F905F904F909B
:103D70003F900C94B7198091A003A822A092A003B1
:103D8000C0CF3F2D3F70932E8F2D807F803219F052
:103D9000929480EF9822882071F081E0881661F17A
:103DA000DD20B9F1AA2071F1F801858180FF8ECF65
:103DB0008F70858327C0DD2091F09091A203892D1B
:103DC000892BA11003C00E94AB079DCFE1E0AE128A
:103DD000FACF981709F497CF8093A20394CFA1103C
:103DE00006C00E949806892D0E94A0078CCFF1E0A2
:103DF000AF1609F488CFF5CFDD2031F025E02A1584
:103E000008F481CF892DDFCF34E03A1508F47BCF59
:103E1000EACFAA2041F3F9E38F1209C02FEF37EE62
:103E200083E0215030408040E1F700C000008E2D3B
:103E30000E94680968CF8F2D86958695837061F002
:103E4000813009F060CFC7019370D11002C090E0BB
:103E500080E00E94B50757CFC7019370D11002C010
:103E600090E080E00E94CB074ECF8E2DDD2029F020
:103E70000E94070A0E94A10846CF0E94EF08FACFCD
:103E80008F2D837009F066C0D1103DCF8E2D8295A5
:103E900086958770880F880F6E2D6F70462E512C77
:103EA000712C612C082E04C0440C551C661C771C18
:103EB0000A94D2F740E050E0BA01E4FE0FC04FE0B0
:103EC00050E060E070E004C0440F551F661F771F8C
:103ED0008A95D2F740955095609570958F2D86956F
:103EE00086958370823019F1D8F48090A303909066
:103EF000A403A090A503B090A603813069F04429E3
:103F0000552966297729CB01BA01682179218A21AF
:103F10009B210E94E508F7CE482859286A287B286B
:103F2000CB01BA016429752986299729F2CF442942
:103F30005529662977294090A3035090A4036090E7
:103F4000A5037090A603CB01BA01642575258625CB
:103F50009725DFCF8695DD2011F08F2D8170882386
:103F600009F4D1CE8E2D829586958770880F880FA3
:103F70006E2D6F70462E512C712C612C082E04C0B2
:103F8000440C551C661C771C0A94D2F740E050E0A4
:103F9000BA01E4FE0FC04FE050E060E070E004C002
:103FA000440F551F661F771F8A95D2F7409550958D
:103FB000609570958F2D869586958370823019F166
:103FC000D8F48090330490903404A0903504B090DD
:103FD0003604813069F04429552966297729CB01B7
:103FE000BA01682179218A219B210E948F198BCEE9
:103FF000482859286A287B28CB01BA0164297529E9
:1040000086299729F2CF4429552966297729409096
:104010003304509034046090350470903604CB0122
:10402000BA016425752586259725DFCF9F2D9F70C2
:10403000F92EDD2029F0892F0E94F2198E2DC3CE92
:104040008E2D0E94A0078F2D0E94B7195CCE8E2D59
:10405000E2EF8E1609F453C0E81578F0F0EF8F16F2
:1040600029F121EF821609F442C0DD2009F46BC06A
:10407000A1102CCE8F2D8F713FC033EF831609F422
:1040800043C094EF8912F1CFDD2009F451C02F2DE8
:104090002F71F22E822F0E94F21938E0F39EC00198
:1040A0001124836080939E038F2D26C0DD20D1F0E4
:1040B000E4E0EA1508F427CE2F2D2F7161E070E0BF
:1040C00080E090E004C0660F771F881F991F2A9533
:1040D000D2F74090330450903404609035047090CF
:1040E00036049FCFF5E0FA1508F40DCEE5CF8F2DFD
:1040F0008F71DD2009F4A8CF0E94F21904CE8F2D14
:104100008F71DD20C9F3A0CF60E070E0CB01DD202E
:1041100009F46BCF2F2D2F7161E070E080E090E00B
:1041200004C0660F771F881F991F2A95D2F75DCFAD
:1041300081E00E94DA1981E08A1508F0E4CD82E07E
:104140000E94DA19E0CDAA2059F0893309F06FCE28
:104150009FEFE7EEF3E09150E040F040E1F765CEED
:104160008F2D8F7171CFF0E1EF16FFE5FF0609F497
:10417000B2CA21E1E2162FE5F20609F4B6CA91E8C7
:10418000E9169FE5F90609F4EFCA08F0B0CAF0E8AD
:10419000EF16FFE5FF0609F4D1CA83EFE8168CE5B8
:1041A000F80609F482CB08F069CBE8EDEE16ECE5F1
:1041B000FE0609F476CBF9EDEF16FCE5FF0609F4EF
:1041C00080CB27EDE2162CE5F20609F0E9CA26E2DB
:1041D00041EE61EE62CB30E1E3163FE5F30609F410
:1041E00080CA91E1E9169FE5F90649F682E07ACAAC
:1041F00085E0DE01119601900D928A95E1F7F801B4
:10420000228189819A81211147C90E944207F82E93
:104210004BC9F6E1EF16FCE5FF0609F0E7CC80910B
:10422000460381115ECC89E20E94E30655CC82727E
:10423000F701E25CFC45E431F10508F0CCCCEF5825
:10424000FD4C0C9412311F93CF93DF9380914D035B
:10425000807FA9F480914A03882389F080917F03AD
:10426000D0914E036091480370914903A0914B0394
:10427000B0914C03C62FC72316E0D81304C0DF91BA
:10428000CF911F91089590E0109711F0CF3F19F44E
:1042900001968770F2CF189F9001199F300D11245D
:1042A000F901E15BFC4F41814713F2CF4081461396
:1042B000EFCF42814111ECCF438154814A1B5B0B0C
:1042C000483C510528F780914D038F7080618093A1
:1042D0004D03F901EC5AFC4F80818F70806180831F
:1042E00088E493E00E94131ADF91CF911F910C9400
:1042F0009607AF92BF92CF92DF92EF92FF920F9309
:104300001F93CF93DF93CDB7DEB761970FB6F894C5
:10431000DEBF0FBECDBF8C0185E0F801DE011D962A
:1043200001900D928A95E1F7F80180819181E280F8
:1043300028E4A22E23E0B22E60914B0370914C032F
:104340006115710509F43EC130914803409149035C
:10435000232F24232F3F09F435C1C380D480F0904C
:104360004A03F601E61BF70BFF2009F4FBC020917E
:104370004D03522F507FE83CF10508F0BBC05111AE
:1043800078C0FE2C491321C038131FC0E1101DC096
:104390002F70206120934D03C5010E94131A809154
:1043A0004D03F80185838F2D61960FB6F894DEBF1B
:1043B0000FBECDBFDF91CF911F910F91FF90EF9076
:1043C000DF90CF90BF90AF900895CD2829F0282F8F
:1043D00029232F3F09F014C120E0F22FF170DF2EC6
:1043E00020FF3DC020917F0340914E0356E02413EF
:1043F00015C08D879E878D859E850E94C80C292FAC
:1044000022952F702230F8F0243020F59F70F9F0BB
:10441000F8019581907FD9F4D12C1FC030E0529FD4
:10442000F001539FF00D1124E15BFC4F6181961365
:1044300006C06081861303C06281E61210C02F5F40
:104440003F4F2770D4CF9F7011F0882329F3805EEF
:10445000883010F3C8010E94131AFD2CA4CFEE205F
:1044600009F4A1CF80914D03816080934D03F12C1D
:104470009ACF491312C0381310C0E1100EC0F801D2
:104480002583C8010E94131A86E0F801A8E4B3E06E
:1044900001900D928A95E1F786CF8D879E878D8555
:1044A0009E850E94D20C882309F1EE20F9F08091BC
:1044B0004D03803270F020914803309149033887D2
:1044C0002F831986DB86CA868C87CE0107960E94C9
:1044D000131A86E0F801A8E4B3E001900D928A95E2
:1044E000E1F70E942321FF24F3945DCFC8010E94CD
:1044F000131AF9CF51110AC088E493E00E94131AED
:1045000086E0F50111928A95E9F7B1CF49130FC002
:1045100038130DC0E1100BC0F8012583C8010E94BB
:10452000131A86E0F50111928A95E9F73CCF8D8741
:104530009E878D859E850E94D20C8823B9F2EE203D
:10454000A9F280914D03803220F2209148033091EE
:1045500049033A8329831B82DD82CC828E83CE017C
:104560000196B5CFE83CF105E0F6FE2CEE2009F40B
:10457000BDCF491316C0381314C080914D0380FD80
:1045800083CF982F907F09F47FCFF8018583903FE8
:1045900009F477CF982F907F905F8F70892B858358
:1045A00070CF8D879E878D859E850E94D20C81114C
:1045B00090CF80914D03816080934D03C8010E948C
:1045C000131AF1CEEE2009F491CF8D879E878D8549
:1045D0009E850E94D20CF82E882309F487CF86E0AE
:1045E000F801A8E4B3E001900D928A95E1F780917B
:1045F0004803909149030E94C80C0E942321D3CE06
:1046000021E02E25EACE1F93CF93DF93CDB7DEB7FF
:1046100067970FB6F894DEBF0FBECDBF342F4B8B1C
:10462000252F5C8B6D8B7E8B8F8B8E899F89611183
:104630001092A0031A8A198A3D872E876F87998B5B
:10464000888B86E0FE013D96DE01179601900D9263
:104650008A95E1F7CE0107960E947921882389F097
:1046600016E080917F0390914E03891349C06796AD
:104670000FB6F894DEBF0FBECDBFDF91CF911F9173
:10468000089586E0FE013796DE01119601900D92A5
:104690008A95E1F78A859B85892B11F38F8198850F
:1046A00089238F3FE9F220914E0330E0C901019642
:1046B0008770992740917F034817190671F40E946B
:1046C000DB1010924E0310927F0386E0E8E4F3E0E3
:1046D000DF011D928A95E9F7C3CF96E0929FD00142
:1046E000939FB00D1124A15BBC4FFE013196019048
:1046F0000D929A95E1F780934E030E949607B0CFF2
:10470000819FC0011124815B9C4F0E9479218823E5
:1047100009F4ADCF80917F0390E0019687709927CF
:1047200080937F039ECF0F931F93CF93DF93CDB7DB
:10473000DEB7C45BD1090FB6F894DEBF0FBECDBFA4
:10474000182F8111CCC0662309F46AC0C055DF4F11
:104750001882C05BD040CF54DF4F1882C15BD0407D
:1047600081E0CE54DF4F8883C25BD0400E948C062C
:104770008160782FCD54DF4F99838883C35BD0400D
:10478000C055DF4F4881C05BD040CF54DF4F5881C8
:10479000C15BD040CE54DF4F6881C25BD040CC5467
:1047A000DF4F8881C45BD0400E940323C555DF4F93
:1047B0001882CB5AD040C455DF4F1882CC5AD04013
:1047C000C355DF4F1882CD5AD0400E948C068160BD
:1047D000782FC255DF4F99838883CE5AD040C55574
:1047E000DF4F4881CB5AD040C455DF4F5881CC5A57
:1047F000D040C355DF4F6881CD5AD040C155DF4FFF
:104800008881CF5AD040CC54DF4F0FB6F894DEBF2A
:104810000FBECDBFDF91CF911F910F910C94032359
:1048200012E0CA55DF4F1883C65AD040C955DF4F32
:104830001882C75AD04081E0C855DF4F8883C85AD4
:10484000D0400E948C068160782FC755DF4F998336
:104850008883C95AD040CA55DF4F4881C65AD040D4
:10486000C955DF4F5881C75AD040C855DF4F6881BE
:10487000C85AD040C655DF4F8881CA5AD0400E94DE
:104880000323CF55DF4F1883C15AD040CE55DF4F99
:104890001882C25AD040CD55DF4F1882C35AD0403B
:1048A0000E948C068160782FCC55DF4F99838883D6
:1048B000C45AD040CF55DF4F4881C15AD040CE5561
:1048C000DF4F5881C25AD040CD55DF4F6881C35A5F
:1048D000D040CB55DF4F8881C55AD04094CF81302E
:1048E00009F0BEC0662309F45DC0C456DF4F1882CC
:1048F000CC59D040C356DF4F8883CD59D040C256E3
:10490000DF4F8883CE59D0400E948C068160782F7B
:10491000C156DF4F99838883CF59D040C456DF4FAB
:104920004881CC59D040C356DF4F5881CD59D04033
:10493000C256DF4F6881CE59D040C056DF4F8881C4
:10494000C05AD0400E940323C956DF4F1882C7596E
:10495000D040C856DF4F1883C859D040C756DF4FE4
:104960001882C959D0400E948C068160782FC656A3
:10497000DF4F99838883CA59D040C956DF4F488199
:10498000C759D040C856DF4F5881C859D040C75684
:10499000DF4F6881C959D040C556DF4F8881CB5958
:1049A000D04031CF02E0CE56DF4F0883C259D0400D
:1049B000CD56DF4F8883C359D040CC56DF4F888314
:1049C000C459D0400E948C068160782FCB56DF4FAF
:1049D00099838883C559D040CE56DF4F4881C2594C
:1049E000D040CD56DF4F5881C359D040CC56DF4F11
:1049F0006881C459D040CA56DF4F8881C659D0401B
:104A00000E940323C357DF4F0883CD58D040C257BD
:104A1000DF4F1883CE58D040C157DF4F1882CF5890
:104A2000D0400E948C068160782FC057DF4F998359
:104A30008883C059D040C357DF4F4881CD58D040FC
:104A4000C257DF4F5881CE58D040C157DF4F6881E1
:104A5000CF58D040CF56DF4F8881C159D040D3CEF8
:104A6000823009F0ABC0662309F45EC0C857DF4F3F
:104A70001882C858D040C757DF4F8883C958D040E4
:104A800081E0C657DF4F8883CA58D0400E948C0609
:104A90008160782FC557DF4F99838883CB58D040EA
:104AA000C857DF4F4881C858D040C757DF4F58819B
:104AB000C958D040C657DF4F6881CA58D040C45744
:104AC000DF4F8881CC58D0400E940323CD57DF4F61
:104AD0001882C358D040CC57DF4F1883C458D040F9
:104AE000CB57DF4F1882C558D0400E948C0681609A
:104AF000782FCA57DF4F99838883C658D040CD5747
:104B0000DF4F4881C358D040CC57DF4F5881C4583D
:104B1000D040CB57DF4F6881C558D040C957DF4FD1
:104B20008881C758D0406FCEEF968FAFEF97C158AE
:104B3000DF4F8883CF57D04081E0C058DF4F888354
:104B4000C058D0400E948C068160782FCF57DF4F2D
:104B500099838883C158D040EF964FADEF97C158E5
:104B6000DF4F5881CF57D040C058DF4F6881C058C1
:104B7000D040CE57DF4F8881C258D0400E940323D7
:104B8000EA961FAFEA97EB961FAFEB97EC961FAE36
:104B9000EC970E948C068160782FEE969FAF8EAFC7
:104BA000EE97EA964FADEA97EB965FADEB97EC96F2
:104BB0006FADEC97EE968FADEE9725CE833009F072
:104BC00081C0662309F43FC019E0E5961FAFE59761
:104BD000E6961FAEE69781E0E7968FAFE7970E94D3
:104BE0008C068160782FE9969FAF8EAFE997E596A6
:104BF0004FADE597E6965FADE697E7966FADE79721
:104C0000E9968FADE9970E940323E0961FAFE097E6
:104C1000E1961FAEE197E2961FAEE2970E948C06E6
:104C20008160782FE4969FAF8EAFE497E0964FAD0A
:104C3000E097E1965FADE197E2966FADE297E4967B
:104C40008FADE497E0CD1BE0AB961FAFAB97AC9672
:104C50001FAEAC9781E0AD968FAFAD970E948C06EA
:104C60008160782FAF969FAF8EAFAF97AB964FAD69
:104C7000AB97AC965FADAC97AD966FADAD97AF9679
:104C80008FADAF970E940323A6961FAFA697A79656
:104C90001FAEA797A8961FAEA8970E948C068160AA
:104CA000782FAA969FAF8EAFAA97A6964FADA697DC
:104CB000A7965FADA797A8966FADA897AA968FAD58
:104CC000AA97A1CD843009F081C0662309F43FC0C2
:104CD00009E0A1960FAFA19711E0A2961FAFA2978E
:104CE000A3961FAFA3970E948C068160782FA5968C
:104CF0009FAF8EAFA597A1964FADA197A2965FAD3E
:104D0000A297A3966FADA397A5968FADA5970E9486
:104D100003236C960FAF6C976D961FAF6D976E96D1
:104D20001FAE6E970E948C068160782FA0969FAF71
:104D30008EAFA0976C964FAD6C976D965FAD6D97EB
:104D40006E966FAD6E97A0968FADA0975CCD0BE081
:104D500067960FAF679711E068961FAF68976996DF
:104D60001FAF69970E948C068160782F6B969FAF6A
:104D70008EAF6B9767964FAD679768965FAD6897F4
:104D800069966FAD69976B968FAD6B970E94032301
:104D900062960FAF629763961FAF639764961FAEDC
:104DA00064970E948C068160782F66969FAF8EAFC5
:104DB000669762964FAD629763965FAD6397649610
:104DC0006FAD649766968FAD66971DCD853009F0FF
:104DD00077C0662309F440C009E02D960FAF2D97E8
:104DE00012E02E961FAF2E9781E02F968FAF2F9750
:104DF0000E948C068160782F61969FAF8EAF61977D
:104E00002D964FAD2D972E965FAD2E972F966FADA9
:104E10002F9761968FAD61970E94032328960FAF5D
:104E2000289729961FAF29972A961FAE2A970E9486
:104E30008C068160782F2C969FAF8EAF2C9728968A
:104E40004FAD289729965FAD29972A966FAD2A977F
:104E50002C968FAD2C97D7CC0BE023960FAF2397D2
:104E600012E024961FAF249781E025968FAF2597F7
:104E70000E948C068160782F27969FAF8EAF279770
:104E800023964FAD239724965FAD249725966FAD5B
:104E9000259727968FAD27970E9403230DAF1EAF4E
:104EA0001FAE0E948C068160782F22969FAF8EAF36
:104EB00022974DAD5EAD6FAD22968FAD2297A3CCFC
:104EC000863009F042C0662301F109E008AF13E023
:104ED00019AF81E08AAF0E948C068160782F9CAF69
:104EE0008BAF48AD59AD6AAD8CAD0E9403230BABBF
:104EF0001CAB1DAA0E948C068160782F9FAB8EABE5
:104F00004BA95CA96DA98FA97ECC0BE00EA713E07D
:104F10001FA781E088AB0E948C068160782F9AAB36
:104F200089AB4EA55FA568A98AA90E94032309A79A
:104F30001AA71BA60E948C068160782F9DA78CA7BC
:104F400049A55AA56BA58DA55ECC873009F041C057
:104F50006623F9F013E01CA31DA381E08EA30E9439
:104F60008C068160782F98A78FA34CA15DA16EA1BC
:104F700088A50E9403231F8F18A319A20E948C06E4
:104F80008160782F9BA38AA34F8D58A169A18BA123
:104F90003ACC05E00A8F13E01B8F81E08C8F0E94D2
:104FA0008C068160782F9E8F8D8F4A8D5B8D6C8DE6
:104FB0008E8D0E9403230D8B1E8B1F8A0E948C06F0
:104FC0008160782F998F888F4D895E896F89898D4F
:104FD0001ACC662301F106E0088B13E0198B81E0FF
:104FE0008A8B0E948C068160782F9C8B8B8B4889E2
:104FF00059896A898C890E9403230B871C871D8627
:105000000E948C068160782F9F878E874B855C85F8
:105010006D858F85F8CB08E00E8313E01F8381E058
:1050200088870E948C068160782F9A8789874E81B5
:105030005F8168858A850E94032309831A831B8206
:105040000E948C068160782F9D838C8349815A81D0
:105050006B818D81D8CBE3EFF3E0438128E0421BE5
:1050600008F440E021E0628181810C949817E3EF1D
:10507000F3E0438128E0420F08F44FEF21E0628122
:1050800081810C949817E3EFF3E0628128E0621BC2
:1050900008F460E021E0438181810C949817E3EFEC
:1050A000F3E0628128E0620F08F46FEF21E04381B2
:1050B00081810C949817E3EFF3E0818121E0438133
:1050C000628188500C949817E3EFF3E0818121E02E
:1050D00043816281885F0C9498171F920F920FB6DC
:1050E0000F9211242F933F934F935F936F937F936E
:1050F0008F939F93AF93BF93CF93DF93EF93FF93E0
:10510000D091E900DF708091EC00C82FC17080FD64
:10511000C0E81092E9008091F000877F8093F00052
:1051200078940E94F0101092E9008091F00088605D
:105130008093F000CD2BCF70C093E900FF91EF91E9
:10514000DF91CF91BF91AF919F918F917F916F919F
:105150005F914F913F912F910F900FBE0F901F9035
:1051600018951F920F920FB60F9211242F933F9311
:105170004F935F936F937F938F939F93AF93BF935F
:10518000EF93FF938091E10082FF09C08091E200DC
:1051900082FF05C08091E1008B7F8093E1008091C8
:1051A000DA0080FF24C08091D80080FF20C0809169
:1051B000DA008E7F8093DA008091D90080FF9BC057
:1051C00088E189BD8AE189BD09B400FEFDCF81E097
:1051D0008093290480910404811109C00E94ED0488
:1051E0000E94B8058091E20084608093E200809183
:1051F000E10080FF17C08091E20080FF13C0809122
:10520000E2008E7F8093E2008091E20080618093D3
:10521000E2008091D80080628093D80019BC85E0BC
:10522000809329048091E10084FF29C08091E200ED
:1052300084FF25C088E189BD8AE189BD89B5982FA1
:10524000917080FFFBCF8091D8008F7D8093D80034
:105250008091E1008F7E8093E1008091E2008F7E5B
:105260008093E2008091E20081608093E20080916F
:105270002A04882309F445C084E08093290480919E
:10528000E10083FF27C08091E20083FF23C080916B
:10529000E100877F8093E10082E0809329041092EF
:1052A0002A048091E1008E7F8093E1008091E200EA
:1052B0008E7F8093E2008091E20080618093E20023
:1052C00042E060E080E00E9486058091F000886006
:1052D0008093F000FF91EF91BF91AF919F918F91DB
:1052E0007F916F915F914F913F912F910F900FBEE2
:1052F0000F901F90189519BC109229041092040465
:1053000076CF8091E30087FD93E090932904B7CF97
:10531000CDB7DEB7AA970FB6F894DEBF0FBECDBFEC
:1053200084B7877F84BF0FB6F894A89580916000FA
:10533000886180936000109260000FBE80E890E06A
:105340000FB6F89480936100909361000FBE85B70B
:10535000806885BF85B7806885BF88E796E09093B1
:10536000C5018093C4010E94ED040E94B80580919C
:10537000E20084608093E20078948091290488237D
:10538000A1F01091E9001F709091EC00892F8170BD
:1053900090FD80E8182B1092E9008091E80083FDD1
:1053A0000E94F0101F701093E90082E084BD93E02A
:1053B00095BD9AEF97BD80936E0080EF0E94610AC1
:1053C00081EF0E94610A82EF0E94610A83EF0E94CE
:1053D000610A0DE711E069E8E62E61E0F62ED801DA
:1053E0008D918D010E94610AE016F106C1F71092BD
:1053F000A8031092A7031092F9031092F8031092D9
:10540000AA031092A9031092FB031092FA031092C0
:10541000AC031092AB031092FD031092FC031092A8
:10542000AE031092AD031092FF031092FE030E9490
:10543000500FEFE3FCE93197F1F700C000000E9444
:10544000500F8091F80380FF17C06FEF82E290E069
:105450000E94B4316FEF83E290E00E94B4316FEFAD
:1054600084E290E00E94B4316FEF7FEF90E080E043
:105470000E94D2310E94F60D90E080E00E94AE3191
:105480008B3E9E4F11F00E942D1082E290E00E9410
:10549000A031813209F00DC683E290E00E94A03174
:1054A000863009F006C684E290E00E94A031843183
:1054B00009F0FFC590E080E00E94AE318B3E9E4F28
:1054C00011F00E942D1082E090E00E94A0318093A4
:1054D000E7030E94BB0A9093B0038093AF0383E07D
:1054E00090E00E94A031682F70E090E080E00E9480
:1054F000E5086091330470913404809135049091F3
:1055000036040E94D0188091B103811136C090E01A
:1055100080E00E94AE318B3E9E4F21F00E942D1004
:105520000E94CB1088E090E00E94A8316093F303C2
:105530007093F4038093F5039093F6036E7F71F4F8
:105540000E94CB1088E090E00E94A8316093F303A2
:105550007093F4038093F5039093F6030E94F2078F
:105560001092F1038091F30380FF04C060E0869500
:105570000E94301881E08093B10364EB71E051ED3B
:10558000852E53E0952E22EA31E0EBEAF1E041E08E
:1055900050E01191812F82958F7090E0DC019196FF
:1055A000FC9091971F70E12E6A0101C0CC0C1A95F6
:1055B000EAF70C2D00950F2191960C9391979296F6
:1055C0001C9192971C2992961C93D901FD909D01E4
:1055D0000F2D02950F7010E0D8019196BC90BF2D51
:1055E000BF70FB2E6A0101C0CC0CBA95EAF7DC2C27
:1055F000D094DB20D8019196DC9291979296DC9022
:105600009297DC289296DC92DC0190968C9190E047
:1056100002C095958795EA94E2F78170D80190963B
:105620000C9110E002C015950795FA94E2F790E00E
:1056300000FD92E0892BD4018D934D016E177F07F9
:1056400009F0A7CF84E998E09093B3038093B20365
:105650008091F30381608093F30361E086950E945B
:10566000301860E081E20E94301842E36FEF82E37D
:105670000E942D1861E070E080E090E00E948F1998
:1056800082E191E09093B5038093B4038091290463
:10569000FF24F39408E11AE1853009F47AC20E94EC
:1056A000500F882359F08FB7F8944091000450911F
:1056B000010460910204709103048FBFA8EFB3E06E
:1056C000E8EEF3E010E000E0702F8D919D912191C4
:1056D00031912817390709F47FC22827392760E05C
:1056E000EE24E394F12CA9014E215F21452B09F40E
:1056F0006DC269A37AA39C012E213F2191E0232B47
:1057000009F490E09BA30E948C068160782F9DA3F2
:105710008CA349A15AA16BA18DA10E940323000F64
:10572000111FF801E851FC4F80819181E826F9268C
:10573000F182E0828091F1038823D1F18091F0031E
:10574000E091F303E695E81BE093BB03823009F098
:105750005AC2F0E0EB54F74FE4910E2F10E054E7FB
:10576000E52E57E1F52E8091BC03882361F010925D
:10577000BC030E948C069093BA038093B9031092E5
:10578000BE031092BD030E948C06E091B903F09114
:10579000BA038E1B9F0B8F3F9F4750F4E00FF11F02
:1057A000F093BA03E093B90389EB93E0F70109950D
:1057B00038ECE32E33E0F32E0FEB13E049E9442EEF
:1057C00041E0542E52EA652E51E0752E6BEA862E8A
:1057D00061E0962E71EDA72E73E0B72E212C312CAF
:1057E000D501ED915D01EE0FEE0FD4012D914D012C
:1057F000A22FA295AF70B0E090968C9190E02F70A0
:1058000002C0959587952A95E2F781709927D30173
:105810004D913D01A42FA295AF70B0E090962C91D0
:1058200030E04F7002C0359527954A95E2F7A901FF
:105830004170552720FF02C042E050E0842BE82B46
:10584000D5011197EC93D201CD902D01EF70F0E0CE
:10585000E757FE4F8081F7019081890F808320E018
:105860008C154CF0D8018C918F5F8C9360E0832D68
:105870000E94932321E00C2C000CDD08F7018081AD
:10588000082E000C990B442755274C195D09481721
:1058900059074CF0D8018C9181508C9361E0832D95
:1058A0000E94932321E0F7018081082E000C990BC0
:1058B000B6010E94FE30D7018D937D01222A3394D8
:1058C0000F5F1F4FB9E03B128BCF222059F08FB7EB
:1058D000F894409100045091010460910204709189
:1058E00003048FBF86E0E0EEF3E0DE011196019045
:1058F0000D928A95E1F7F090E203E090E3031091B6
:10590000E4030091E5031092E2031092E303109286
:10591000E4031092E5038F2D8E2909F448C080918D
:10592000DE039091DF030E947D069C019091DD03D0
:10593000992309F4E5C323333105C8F19F3F19F0DA
:105940009F5F9093DD03FF2059F00E94E7099FEFCE
:105950001F140CF491E0899F802D11248093E203A1
:10596000EE2059F00E94E7099FEF1E140CF491E01D
:10597000899F802D11248093E3033091E203332328
:10598000B1F02091E303222391F045EB3403C001F1
:105990001124992309F4A3C19093E20345EB240356
:1059A00090011124332309F49EC13093E303812F26
:1059B000802B09F448C08091DB039091DC030E94A6
:1059C0007D069C019091DA03992309F494C325364E
:1059D0003105C8F19F3F19F09F5F9093DA031123BF
:1059E00059F00E94C5099FEF11160CF491E0899FB0
:1059F000802D11248093E403002359F00E94C509EF
:105A00009FEF10160CF491E0899F802D1124809354
:105A1000E5033091E4033323B1F02091E503222321
:105A200091F045EB3403C0011124992309F45FC1BF
:105A30009093E40345EB240390011124332309F4EC
:105A40005AC13093E5038091E2039091E303892BDF
:105A50009091E403892B9091E503892B11F00E942A
:105A6000A10886E0FE013196A0EEB3E001900D9210
:105A70008A95E1F70E94E1079091E603891731F0DA
:105A80000E94E1078093E6030E948E18809129040A
:105A9000843009F0FBCD83E08093E9008091E80039
:105AA00082FFF4CD8091E80090E085FF06C00E945F
:105AB0000C05882309F423C191E08091E8008B77DD
:105AC0008093E800992309F4E1CDE981E150E331C5
:105AD00008F0A9C1F0E0EB57FD4C0C941231809115
